{
  "_format": "hh-sol-artifact-1",
  "contractName": "MyEpicGame",
  "sourceName": "contracts/MyEpicGame.sol",
  "abi": [
    {
      "inputs": [
        {
          "internalType": "string[]",
          "name": "characterNames",
          "type": "string[]"
        },
        {
          "internalType": "string[]",
          "name": "characterImageURIs",
          "type": "string[]"
        },
        {
          "internalType": "uint256[]",
          "name": "characterHp",
          "type": "uint256[]"
        },
        {
          "internalType": "uint256[]",
          "name": "characterAttackDmg",
          "type": "uint256[]"
        },
        {
          "internalType": "string",
          "name": "bossName",
          "type": "string"
        },
        {
          "internalType": "string",
          "name": "bossImageURI",
          "type": "string"
        },
        {
          "internalType": "uint256",
          "name": "bossHp",
          "type": "uint256"
        },
        {
          "internalType": "uint256",
          "name": "bossAttackDamage",
          "type": "uint256"
        }
      ],
      "stateMutability": "nonpayable",
      "type": "constructor"
    },
    {
      "anonymous": false,
      "inputs": [
        {
          "indexed": true,
          "internalType": "address",
          "name": "owner",
          "type": "address"
        },
        {
          "indexed": true,
          "internalType": "address",
          "name": "approved",
          "type": "address"
        },
        {
          "indexed": true,
          "internalType": "uint256",
          "name": "tokenId",
          "type": "uint256"
        }
      ],
      "name": "Approval",
      "type": "event"
    },
    {
      "anonymous": false,
      "inputs": [
        {
          "indexed": true,
          "internalType": "address",
          "name": "owner",
          "type": "address"
        },
        {
          "indexed": true,
          "internalType": "address",
          "name": "operator",
          "type": "address"
        },
        {
          "indexed": false,
          "internalType": "bool",
          "name": "approved",
          "type": "bool"
        }
      ],
      "name": "ApprovalForAll",
      "type": "event"
    },
    {
      "anonymous": false,
      "inputs": [
        {
          "indexed": false,
          "internalType": "uint256",
          "name": "newBossHp",
          "type": "uint256"
        },
        {
          "indexed": false,
          "internalType": "uint256",
          "name": "newPlayerHp",
          "type": "uint256"
        }
      ],
      "name": "AttackComplete",
      "type": "event"
    },
    {
      "anonymous": false,
      "inputs": [
        {
          "indexed": false,
          "internalType": "address",
          "name": "sender",
          "type": "address"
        },
        {
          "indexed": false,
          "internalType": "uint256",
          "name": "tokenId",
          "type": "uint256"
        },
        {
          "indexed": false,
          "internalType": "uint256",
          "name": "characterIndex",
          "type": "uint256"
        }
      ],
      "name": "CharacterNFTMinted",
      "type": "event"
    },
    {
      "anonymous": false,
      "inputs": [
        {
          "indexed": true,
          "internalType": "address",
          "name": "from",
          "type": "address"
        },
        {
          "indexed": true,
          "internalType": "address",
          "name": "to",
          "type": "address"
        },
        {
          "indexed": true,
          "internalType": "uint256",
          "name": "tokenId",
          "type": "uint256"
        }
      ],
      "name": "Transfer",
      "type": "event"
    },
    {
      "inputs": [
        {
          "internalType": "address",
          "name": "to",
          "type": "address"
        },
        {
          "internalType": "uint256",
          "name": "tokenId",
          "type": "uint256"
        }
      ],
      "name": "approve",
      "outputs": [],
      "stateMutability": "nonpayable",
      "type": "function"
    },
    {
      "inputs": [],
      "name": "attackBoss",
      "outputs": [],
      "stateMutability": "nonpayable",
      "type": "function"
    },
    {
      "inputs": [
        {
          "internalType": "address",
          "name": "owner",
          "type": "address"
        }
      ],
      "name": "balanceOf",
      "outputs": [
        {
          "internalType": "uint256",
          "name": "",
          "type": "uint256"
        }
      ],
      "stateMutability": "view",
      "type": "function"
    },
    {
      "inputs": [],
      "name": "bigBoss",
      "outputs": [
        {
          "internalType": "string",
          "name": "name",
          "type": "string"
        },
        {
          "internalType": "string",
          "name": "imageURI",
          "type": "string"
        },
        {
          "internalType": "uint256",
          "name": "hp",
          "type": "uint256"
        },
        {
          "internalType": "uint256",
          "name": "maxHp",
          "type": "uint256"
        },
        {
          "internalType": "uint256",
          "name": "attackDamage",
          "type": "uint256"
        }
      ],
      "stateMutability": "view",
      "type": "function"
    },
    {
      "inputs": [],
      "name": "checkIfUserHasNFT",
      "outputs": [
        {
          "components": [
            {
              "internalType": "uint256",
              "name": "characterIndex",
              "type": "uint256"
            },
            {
              "internalType": "string",
              "name": "name",
              "type": "string"
            },
            {
              "internalType": "string",
              "name": "imageURI",
              "type": "string"
            },
            {
              "internalType": "uint256",
              "name": "hp",
              "type": "uint256"
            },
            {
              "internalType": "uint256",
              "name": "maxHp",
              "type": "uint256"
            },
            {
              "internalType": "uint256",
              "name": "attackDamage",
              "type": "uint256"
            }
          ],
          "internalType": "struct MyEpicGame.CharacterAttributes",
          "name": "",
          "type": "tuple"
        }
      ],
      "stateMutability": "view",
      "type": "function"
    },
    {
      "inputs": [],
      "name": "getAllDefaultCharacters",
      "outputs": [
        {
          "components": [
            {
              "internalType": "uint256",
              "name": "characterIndex",
              "type": "uint256"
            },
            {
              "internalType": "string",
              "name": "name",
              "type": "string"
            },
            {
              "internalType": "string",
              "name": "imageURI",
              "type": "string"
            },
            {
              "internalType": "uint256",
              "name": "hp",
              "type": "uint256"
            },
            {
              "internalType": "uint256",
              "name": "maxHp",
              "type": "uint256"
            },
            {
              "internalType": "uint256",
              "name": "attackDamage",
              "type": "uint256"
            }
          ],
          "internalType": "struct MyEpicGame.CharacterAttributes[]",
          "name": "",
          "type": "tuple[]"
        }
      ],
      "stateMutability": "view",
      "type": "function"
    },
    {
      "inputs": [
        {
          "internalType": "uint256",
          "name": "tokenId",
          "type": "uint256"
        }
      ],
      "name": "getApproved",
      "outputs": [
        {
          "internalType": "address",
          "name": "",
          "type": "address"
        }
      ],
      "stateMutability": "view",
      "type": "function"
    },
    {
      "inputs": [],
      "name": "getBigBoss",
      "outputs": [
        {
          "components": [
            {
              "internalType": "string",
              "name": "name",
              "type": "string"
            },
            {
              "internalType": "string",
              "name": "imageURI",
              "type": "string"
            },
            {
              "internalType": "uint256",
              "name": "hp",
              "type": "uint256"
            },
            {
              "internalType": "uint256",
              "name": "maxHp",
              "type": "uint256"
            },
            {
              "internalType": "uint256",
              "name": "attackDamage",
              "type": "uint256"
            }
          ],
          "internalType": "struct MyEpicGame.BigBoss",
          "name": "",
          "type": "tuple"
        }
      ],
      "stateMutability": "view",
      "type": "function"
    },
    {
      "inputs": [
        {
          "internalType": "address",
          "name": "owner",
          "type": "address"
        },
        {
          "internalType": "address",
          "name": "operator",
          "type": "address"
        }
      ],
      "name": "isApprovedForAll",
      "outputs": [
        {
          "internalType": "bool",
          "name": "",
          "type": "bool"
        }
      ],
      "stateMutability": "view",
      "type": "function"
    },
    {
      "inputs": [
        {
          "internalType": "uint256",
          "name": "_characterIndex",
          "type": "uint256"
        }
      ],
      "name": "mintCharacterNFT",
      "outputs": [],
      "stateMutability": "nonpayable",
      "type": "function"
    },
    {
      "inputs": [],
      "name": "name",
      "outputs": [
        {
          "internalType": "string",
          "name": "",
          "type": "string"
        }
      ],
      "stateMutability": "view",
      "type": "function"
    },
    {
      "inputs": [
        {
          "internalType": "uint256",
          "name": "",
          "type": "uint256"
        }
      ],
      "name": "nftHolderAttributes",
      "outputs": [
        {
          "internalType": "uint256",
          "name": "characterIndex",
          "type": "uint256"
        },
        {
          "internalType": "string",
          "name": "name",
          "type": "string"
        },
        {
          "internalType": "string",
          "name": "imageURI",
          "type": "string"
        },
        {
          "internalType": "uint256",
          "name": "hp",
          "type": "uint256"
        },
        {
          "internalType": "uint256",
          "name": "maxHp",
          "type": "uint256"
        },
        {
          "internalType": "uint256",
          "name": "attackDamage",
          "type": "uint256"
        }
      ],
      "stateMutability": "view",
      "type": "function"
    },
    {
      "inputs": [
        {
          "internalType": "address",
          "name": "",
          "type": "address"
        }
      ],
      "name": "nftHolders",
      "outputs": [
        {
          "internalType": "uint256",
          "name": "",
          "type": "uint256"
        }
      ],
      "stateMutability": "view",
      "type": "function"
    },
    {
      "inputs": [
        {
          "internalType": "uint256",
          "name": "tokenId",
          "type": "uint256"
        }
      ],
      "name": "ownerOf",
      "outputs": [
        {
          "internalType": "address",
          "name": "",
          "type": "address"
        }
      ],
      "stateMutability": "view",
      "type": "function"
    },
    {
      "inputs": [
        {
          "internalType": "address",
          "name": "from",
          "type": "address"
        },
        {
          "internalType": "address",
          "name": "to",
          "type": "address"
        },
        {
          "internalType": "uint256",
          "name": "tokenId",
          "type": "uint256"
        }
      ],
      "name": "safeTransferFrom",
      "outputs": [],
      "stateMutability": "nonpayable",
      "type": "function"
    },
    {
      "inputs": [
        {
          "internalType": "address",
          "name": "from",
          "type": "address"
        },
        {
          "internalType": "address",
          "name": "to",
          "type": "address"
        },
        {
          "internalType": "uint256",
          "name": "tokenId",
          "type": "uint256"
        },
        {
          "internalType": "bytes",
          "name": "_data",
          "type": "bytes"
        }
      ],
      "name": "safeTransferFrom",
      "outputs": [],
      "stateMutability": "nonpayable",
      "type": "function"
    },
    {
      "inputs": [
        {
          "internalType": "address",
          "name": "operator",
          "type": "address"
        },
        {
          "internalType": "bool",
          "name": "approved",
          "type": "bool"
        }
      ],
      "name": "setApprovalForAll",
      "outputs": [],
      "stateMutability": "nonpayable",
      "type": "function"
    },
    {
      "inputs": [
        {
          "internalType": "bytes4",
          "name": "interfaceId",
          "type": "bytes4"
        }
      ],
      "name": "supportsInterface",
      "outputs": [
        {
          "internalType": "bool",
          "name": "",
          "type": "bool"
        }
      ],
      "stateMutability": "view",
      "type": "function"
    },
    {
      "inputs": [],
      "name": "symbol",
      "outputs": [
        {
          "internalType": "string",
          "name": "",
          "type": "string"
        }
      ],
      "stateMutability": "view",
      "type": "function"
    },
    {
      "inputs": [
        {
          "internalType": "uint256",
          "name": "_tokenId",
          "type": "uint256"
        }
      ],
      "name": "tokenURI",
      "outputs": [
        {
          "internalType": "string",
          "name": "",
          "type": "string"
        }
      ],
      "stateMutability": "view",
      "type": "function"
    },
    {
      "inputs": [
        {
          "internalType": "address",
          "name": "from",
          "type": "address"
        },
        {
          "internalType": "address",
          "name": "to",
          "type": "address"
        },
        {
          "internalType": "uint256",
          "name": "tokenId",
          "type": "uint256"
        }
      ],
      "name": "transferFrom",
      "outputs": [],
      "stateMutability": "nonpayable",
      "type": "function"
    }
  ],
  "bytecode": "0x60806040523480156200001157600080fd5b50604051620058d5380380620058d5833981810160405281019062000037919062000924565b6040518060400160405280601181526020017f417a74656320476f647320426174746c650000000000000000000000000000008152506040518060400160405280600681526020017f415a54474f4400000000000000000000000000000000000000000000000000008152508160009080519060200190620000bb9291906200068c565b508060019080519060200190620000d49291906200068c565b5050506040518060a0016040528085815260200184815260200183815260200183815260200182815250600960008201518160000190805190602001906200011e9291906200068c565b5060208201518160010190805190602001906200013d9291906200068c565b5060408201518160020155606082015181600301556080820151816004015590505060005b88518110156200057b5760076040518060c001604052808381526020018b8481518110620001b9577f4e487b7100000000000000000000000000000000000000000000000000000000600052603260045260246000fd5b602002602001015181526020018a848151811062000200577f4e487b7100000000000000000000000000000000000000000000000000000000600052603260045260246000fd5b6020026020010151815260200189848151811062000247577f4e487b7100000000000000000000000000000000000000000000000000000000600052603260045260246000fd5b602002602001015181526020018984815181106200028e577f4e487b7100000000000000000000000000000000000000000000000000000000600052603260045260246000fd5b60200260200101518152602001888481518110620002d5577f4e487b7100000000000000000000000000000000000000000000000000000000600052603260045260246000fd5b60200260200101518152509080600181540180825580915050600190039060005260206000209060060201600090919091909150600082015181600001556020820151816001019080519060200190620003319291906200068c565b506040820151816002019080519060200190620003509291906200068c565b50606082015181600301556080820151816004015560a082015181600501555050600060078281548110620003ae577f4e487b7100000000000000000000000000000000000000000000000000000000600052603260045260246000fd5b90600052602060002090600602016040518060c001604052908160008201548152602001600182018054620003e39062000ca7565b80601f0160208091040260200160405190810160405280929190818152602001828054620004119062000ca7565b8015620004625780601f10620004365761010080835404028352916020019162000462565b820191906000526020600020905b8154815290600101906020018083116200044457829003601f168201915b505050505081526020016002820180546200047d9062000ca7565b80601f0160208091040260200160405190810160405280929190818152602001828054620004ab9062000ca7565b8015620004fc5780601f10620004d057610100808354040283529160200191620004fc565b820191906000526020600020905b815481529060010190602001808311620004de57829003601f168201915b505050505081526020016003820154815260200160048201548152602001600582015481525050905062000563604051806060016040528060258152602001620058b060259139826020015183606001518460400151620005a160201b62001e181760201c565b5060018162000573919062000c0a565b905062000162565b506200059360066200064d60201b62001eba1760201c565b505050505050505062000dcb565b6200064784848484604051602401620005be949392919062000acf565b6040516020818303038152906040527f8d142cdd000000000000000000000000000000000000000000000000000000007bffffffffffffffffffffffffffffffffffffffffffffffffffffffff19166020820180517bffffffffffffffffffffffffffffffffffffffffffffffffffffffff83818316178352505050506200066360201b60201c565b50505050565b6001816000016000828254019250508190555050565b60008151905060006a636f6e736f6c652e6c6f679050602083016000808483855afa5050505050565b8280546200069a9062000ca7565b90600052602060002090601f016020900481019282620006be57600085556200070a565b82601f10620006d957805160ff19168380011785556200070a565b828001600101855582156200070a579182015b8281111562000709578251825591602001919060010190620006ec565b5b5090506200071991906200071d565b5090565b5b80821115620007385760008160009055506001016200071e565b5090565b6000620007536200074d8462000b5a565b62000b31565b905080838252602082019050828560208602820111156200077357600080fd5b60005b85811015620007c257815167ffffffffffffffff8111156200079757600080fd5b808601620007a68982620008e0565b8552602085019450602084019350505060018101905062000776565b5050509392505050565b6000620007e3620007dd8462000b89565b62000b31565b905080838252602082019050828560208602820111156200080357600080fd5b60005b858110156200083757816200081c88826200090d565b84526020840193506020830192505060018101905062000806565b5050509392505050565b600062000858620008528462000bb8565b62000b31565b9050828152602081018484840111156200087157600080fd5b6200087e84828562000c71565b509392505050565b600082601f8301126200089857600080fd5b8151620008aa8482602086016200073c565b91505092915050565b600082601f830112620008c557600080fd5b8151620008d7848260208601620007cc565b91505092915050565b600082601f830112620008f257600080fd5b81516200090484826020860162000841565b91505092915050565b6000815190506200091e8162000db1565b92915050565b600080600080600080600080610100898b0312156200094257600080fd5b600089015167ffffffffffffffff8111156200095d57600080fd5b6200096b8b828c0162000886565b985050602089015167ffffffffffffffff8111156200098957600080fd5b620009978b828c0162000886565b975050604089015167ffffffffffffffff811115620009b557600080fd5b620009c38b828c01620008b3565b965050606089015167ffffffffffffffff811115620009e157600080fd5b620009ef8b828c01620008b3565b955050608089015167ffffffffffffffff81111562000a0d57600080fd5b62000a1b8b828c01620008e0565b94505060a089015167ffffffffffffffff81111562000a3957600080fd5b62000a478b828c01620008e0565b93505060c062000a5a8b828c016200090d565b92505060e062000a6d8b828c016200090d565b9150509295985092959890939650565b600062000a8a8262000bee565b62000a96818562000bf9565b935062000aa881856020860162000c71565b62000ab38162000da0565b840191505092915050565b62000ac98162000c67565b82525050565b6000608082019050818103600083015262000aeb818762000a7d565b9050818103602083015262000b01818662000a7d565b905062000b12604083018562000abe565b818103606083015262000b26818462000a7d565b905095945050505050565b600062000b3d62000b50565b905062000b4b828262000cdd565b919050565b6000604051905090565b600067ffffffffffffffff82111562000b785762000b7762000d71565b5b602082029050602081019050919050565b600067ffffffffffffffff82111562000ba75762000ba662000d71565b5b602082029050602081019050919050565b600067ffffffffffffffff82111562000bd65762000bd562000d71565b5b62000be18262000da0565b9050602081019050919050565b600081519050919050565b600082825260208201905092915050565b600062000c178262000c67565b915062000c248362000c67565b9250827fffffffffffffffffffffffffffffffffffffffffffffffffffffffffffffffff0382111562000c5c5762000c5b62000d13565b5b828201905092915050565b6000819050919050565b60005b8381101562000c9157808201518184015260208101905062000c74565b8381111562000ca1576000848401525b50505050565b6000600282049050600182168062000cc057607f821691505b6020821081141562000cd75762000cd662000d42565b5b50919050565b62000ce88262000da0565b810181811067ffffffffffffffff8211171562000d0a5762000d0962000d71565b5b80604052505050565b7f4e487b7100000000000000000000000000000000000000000000000000000000600052601160045260246000fd5b7f4e487b7100000000000000000000000000000000000000000000000000000000600052602260045260246000fd5b7f4e487b7100000000000000000000000000000000000000000000000000000000600052604160045260246000fd5b6000601f19601f8301169050919050565b62000dbc8162000c67565b811462000dc857600080fd5b50565b614ad58062000ddb6000396000f3fe608060405234801561001057600080fd5b50600436106101375760003560e01c806395d89b41116100b8578063b953084e1161007c578063b953084e14610369578063c87b56dd14610387578063c8cf27f4146103b7578063d4f24c5b146103d5578063e985e9c5146103df578063f8b81ef71461040f57610137565b806395d89b41146102bc57806398da4c95146102da578063a22cb4651461030f578063a9c326791461032b578063b88d4fde1461034d57610137565b806323b872dd116100ff57806323b872dd146101f457806342842e0e146102105780636352211e1461022c57806370a082311461025c5780637df124a11461028c57610137565b806301ffc9a71461013c5780630665f9611461016c57806306fdde031461018a578063081812fc146101a8578063095ea7b3146101d8575b600080fd5b6101566004803603810190610151919061318e565b61042b565b60405161016391906139f3565b60405180910390f35b61017461050d565b6040516101819190613dc3565b60405180910390f35b610192610669565b60405161019f9190613a0e565b60405180910390f35b6101c260048036038101906101bd91906131e0565b6106fb565b6040516101cf9190613933565b60405180910390f35b6101f260048036038101906101ed9190613152565b610780565b005b61020e6004803603810190610209919061304c565b610898565b005b61022a6004803603810190610225919061304c565b6108f8565b005b610246600480360381019061024191906131e0565b610918565b6040516102539190613933565b60405180910390f35b61027660048036038101906102719190612fe7565b6109ca565b6040516102839190613e07565b60405180910390f35b6102a660048036038101906102a19190612fe7565b610a82565b6040516102b39190613e07565b60405180910390f35b6102c4610a9a565b6040516102d19190613a0e565b60405180910390f35b6102f460048036038101906102ef91906131e0565b610b2c565b60405161030696959493929190613e22565b60405180910390f35b61032960048036038101906103249190613116565b610c78565b005b610333610df9565b604051610344959493929190613b14565b60405180910390f35b6103676004803603810190610362919061309b565b610f2d565b005b610371610f8f565b60405161037e91906139d1565b60405180910390f35b6103a1600480360381019061039c91906131e0565b61113a565b6040516103ae9190613a0e565b60405180910390f35b6103bf611355565b6040516103cc9190613de5565b60405180910390f35b6103dd61152d565b005b6103f960048036038101906103f49190613010565b611891565b60405161040691906139f3565b60405180910390f35b610429600480360381019061042491906131e0565b611925565b005b60007f80ac58cd000000000000000000000000000000000000000000000000000000007bffffffffffffffffffffffffffffffffffffffffffffffffffffffff1916827bffffffffffffffffffffffffffffffffffffffffffffffffffffffff191614806104f657507f5b5e139f000000000000000000000000000000000000000000000000000000007bffffffffffffffffffffffffffffffffffffffffffffffffffffffff1916827bffffffffffffffffffffffffffffffffffffffffffffffffffffffff1916145b80610506575061050582611ed0565b5b9050919050565b610515612e0e565b60096040518060a001604052908160008201805461053290614168565b80601f016020809104026020016040519081016040528092919081815260200182805461055e90614168565b80156105ab5780601f10610580576101008083540402835291602001916105ab565b820191906000526020600020905b81548152906001019060200180831161058e57829003601f168201915b505050505081526020016001820180546105c490614168565b80601f01602080910402602001604051908101604052809291908181526020018280546105f090614168565b801561063d5780601f106106125761010080835404028352916020019161063d565b820191906000526020600020905b81548152906001019060200180831161062057829003601f168201915b505050505081526020016002820154815260200160038201548152602001600482015481525050905090565b60606000805461067890614168565b80601f01602080910402602001604051908101604052809291908181526020018280546106a490614168565b80156106f15780601f106106c6576101008083540402835291602001916106f1565b820191906000526020600020905b8154815290600101906020018083116106d457829003601f168201915b5050505050905090565b600061070682611f3a565b610745576040517f08c379a000000000000000000000000000000000000000000000000000000000815260040161073c90613d43565b60405180910390fd5b6004600083815260200190815260200160002060009054906101000a900473ffffffffffffffffffffffffffffffffffffffff169050919050565b600061078b82610918565b90508073ffffffffffffffffffffffffffffffffffffffff168373ffffffffffffffffffffffffffffffffffffffff1614156107fc576040517f08c379a00000000000000000000000000000000000000000000000000000000081526004016107f390613d83565b60405180910390fd5b8073ffffffffffffffffffffffffffffffffffffffff1661081b611fa6565b73ffffffffffffffffffffffffffffffffffffffff16148061084a575061084981610844611fa6565b611891565b5b610889576040517f08c379a000000000000000000000000000000000000000000000000000000000815260040161088090613ca3565b60405180910390fd5b6108938383611fae565b505050565b6108a96108a3611fa6565b82612067565b6108e8576040517f08c379a00000000000000000000000000000000000000000000000000000000081526004016108df90613da3565b60405180910390fd5b6108f3838383612145565b505050565b61091383838360405180602001604052806000815250610f2d565b505050565b6000806002600084815260200190815260200160002060009054906101000a900473ffffffffffffffffffffffffffffffffffffffff169050600073ffffffffffffffffffffffffffffffffffffffff168173ffffffffffffffffffffffffffffffffffffffff1614156109c1576040517f08c379a00000000000000000000000000000000000000000000000000000000081526004016109b890613ce3565b60405180910390fd5b80915050919050565b60008073ffffffffffffffffffffffffffffffffffffffff168273ffffffffffffffffffffffffffffffffffffffff161415610a3b576040517f08c379a0000000000000000000000000000000000000000000000000000000008152600401610a3290613cc3565b60405180910390fd5b600360008373ffffffffffffffffffffffffffffffffffffffff1673ffffffffffffffffffffffffffffffffffffffff168152602001908152602001600020549050919050565b600e6020528060005260406000206000915090505481565b606060018054610aa990614168565b80601f0160208091040260200160405190810160405280929190818152602001828054610ad590614168565b8015610b225780601f10610af757610100808354040283529160200191610b22565b820191906000526020600020905b815481529060010190602001808311610b0557829003601f168201915b5050505050905090565b6008602052806000526040600020600091509050806000015490806001018054610b5590614168565b80601f0160208091040260200160405190810160405280929190818152602001828054610b8190614168565b8015610bce5780601f10610ba357610100808354040283529160200191610bce565b820191906000526020600020905b815481529060010190602001808311610bb157829003601f168201915b505050505090806002018054610be390614168565b80601f0160208091040260200160405190810160405280929190818152602001828054610c0f90614168565b8015610c5c5780601f10610c3157610100808354040283529160200191610c5c565b820191906000526020600020905b815481529060010190602001808311610c3f57829003601f168201915b5050505050908060030154908060040154908060050154905086565b610c80611fa6565b73ffffffffffffffffffffffffffffffffffffffff168273ffffffffffffffffffffffffffffffffffffffff161415610cee576040517f08c379a0000000000000000000000000000000000000000000000000000000008152600401610ce590613c63565b60405180910390fd5b8060056000610cfb611fa6565b73ffffffffffffffffffffffffffffffffffffffff1673ffffffffffffffffffffffffffffffffffffffff16815260200190815260200160002060008473ffffffffffffffffffffffffffffffffffffffff1673ffffffffffffffffffffffffffffffffffffffff16815260200190815260200160002060006101000a81548160ff0219169083151502179055508173ffffffffffffffffffffffffffffffffffffffff16610da8611fa6565b73ffffffffffffffffffffffffffffffffffffffff167f17307eab39ab6107e8899845ad3d59bd9653f200f220920489ca2b5937696c3183604051610ded91906139f3565b60405180910390a35050565b6009806000018054610e0a90614168565b80601f0160208091040260200160405190810160405280929190818152602001828054610e3690614168565b8015610e835780601f10610e5857610100808354040283529160200191610e83565b820191906000526020600020905b815481529060010190602001808311610e6657829003601f168201915b505050505090806001018054610e9890614168565b80601f0160208091040260200160405190810160405280929190818152602001828054610ec490614168565b8015610f115780601f10610ee657610100808354040283529160200191610f11565b820191906000526020600020905b815481529060010190602001808311610ef457829003601f168201915b5050505050908060020154908060030154908060040154905085565b610f3e610f38611fa6565b83612067565b610f7d576040517f08c379a0000000000000000000000000000000000000000000000000000000008152600401610f7490613da3565b60405180910390fd5b610f89848484846123a1565b50505050565b60606007805480602002602001604051908101604052809291908181526020016000905b8282101561113157838290600052602060002090600602016040518060c001604052908160008201548152602001600182018054610ff090614168565b80601f016020809104026020016040519081016040528092919081815260200182805461101c90614168565b80156110695780601f1061103e57610100808354040283529160200191611069565b820191906000526020600020905b81548152906001019060200180831161104c57829003601f168201915b5050505050815260200160028201805461108290614168565b80601f01602080910402602001604051908101604052809291908181526020018280546110ae90614168565b80156110fb5780601f106110d0576101008083540402835291602001916110fb565b820191906000526020600020905b8154815290600101906020018083116110de57829003601f168201915b50505050508152602001600382015481526020016004820154815260200160058201548152505081526020019060010190610fb3565b50505050905090565b60606000600860008481526020019081526020016000206040518060c00160405290816000820154815260200160018201805461117690614168565b80601f01602080910402602001604051908101604052809291908181526020018280546111a290614168565b80156111ef5780601f106111c4576101008083540402835291602001916111ef565b820191906000526020600020905b8154815290600101906020018083116111d257829003601f168201915b5050505050815260200160028201805461120890614168565b80601f016020809104026020016040519081016040528092919081815260200182805461123490614168565b80156112815780601f1061125657610100808354040283529160200191611281565b820191906000526020600020905b81548152906001019060200180831161126457829003601f168201915b505050505081526020016003820154815260200160048201548152602001600582015481525050905060006112b982606001516123fd565b905060006112ca83608001516123fd565b905060006112db8460a001516123fd565b9050600061132185602001516112f0896123fd565b876040015187878760405160200161130d9695949392919061386c565b6040516020818303038152906040526125aa565b90506000816040516020016113369190613911565b6040516020818303038152906040529050809650505050505050919050565b61135d612e3d565b6000600e60003373ffffffffffffffffffffffffffffffffffffffff1673ffffffffffffffffffffffffffffffffffffffff168152602001908152602001600020549050600081111561151c57600860008281526020019081526020016000206040518060c0016040529081600082015481526020016001820180546113e290614168565b80601f016020809104026020016040519081016040528092919081815260200182805461140e90614168565b801561145b5780601f106114305761010080835404028352916020019161145b565b820191906000526020600020905b81548152906001019060200180831161143e57829003601f168201915b5050505050815260200160028201805461147490614168565b80601f01602080910402602001604051908101604052809291908181526020018280546114a090614168565b80156114ed5780601f106114c2576101008083540402835291602001916114ed565b820191906000526020600020905b8154815290600101906020018083116114d057829003601f168201915b50505050508152602001600382015481526020016004820154815260200160058201548152505091505061152a565b611524612e3d565b80925050505b90565b6000600e60003373ffffffffffffffffffffffffffffffffffffffff1673ffffffffffffffffffffffffffffffffffffffff16815260200190815260200160002054905060006008600083815260200190815260200160002090506116406040518060600160405280603c8152602001614a64603c91398260010180546115b390614168565b80601f01602080910402602001604051908101604052809291908181526020018280546115df90614168565b801561162c5780601f106116015761010080835404028352916020019161162c565b820191906000526020600020905b81548152906001019060200180831161160f57829003601f168201915b505050505083600301548460050154612768565b6117186040518060400160405280601b81526020017f426f73732025732068617320257320485020616e6420257320414400000000008152506009600001805461168990614168565b80601f01602080910402602001604051908101604052809291908181526020018280546116b590614168565b80156117025780601f106116d757610100808354040283529160200191611702565b820191906000526020600020905b8154815290600101906020018083116116e557829003601f168201915b5050505050600960020154600960040154612768565b600081600301541161175f576040517f08c379a000000000000000000000000000000000000000000000000000000000815260040161175690613d03565b60405180910390fd5b6000600960020154116117a7576040517f08c379a000000000000000000000000000000000000000000000000000000000815260040161179e90613c03565b60405180910390fd5b806005015460096002015410156117c85760006009600201819055506117e7565b80600501546009600201546117dd919061407e565b6009600201819055505b600960040154816003015410156118075760008160030181905550611825565b600960040154816003015461181c919061407e565b81600301819055505b61184b604051806060016040528060288152602001614a0e60289139826003015461280a565b7f838ab28464562786a6c4ab2311964b82fa60bd9b14aa7e856af1f3f18d41a4146009600201548260030154604051611885929190613e91565b60405180910390a15050565b6000600560008473ffffffffffffffffffffffffffffffffffffffff1673ffffffffffffffffffffffffffffffffffffffff16815260200190815260200160002060008373ffffffffffffffffffffffffffffffffffffffff1673ffffffffffffffffffffffffffffffffffffffff16815260200190815260200160002060009054906101000a900460ff16905092915050565b600061193160066128a6565b905061193d33826128b4565b6040518060c0016040528083815260200160078481548110611988577f4e487b7100000000000000000000000000000000000000000000000000000000600052603260045260246000fd5b906000526020600020906006020160010180546119a490614168565b80601f01602080910402602001604051908101604052809291908181526020018280546119d090614168565b8015611a1d5780601f106119f257610100808354040283529160200191611a1d565b820191906000526020600020905b815481529060010190602001808311611a0057829003601f168201915b5050505050815260200160078481548110611a61577f4e487b7100000000000000000000000000000000000000000000000000000000600052603260045260246000fd5b90600052602060002090600602016002018054611a7d90614168565b80601f0160208091040260200160405190810160405280929190818152602001828054611aa990614168565b8015611af65780601f10611acb57610100808354040283529160200191611af6565b820191906000526020600020905b815481529060010190602001808311611ad957829003601f168201915b5050505050815260200160078481548110611b3a577f4e487b7100000000000000000000000000000000000000000000000000000000600052603260045260246000fd5b906000526020600020906006020160030154815260200160078481548110611b8b577f4e487b7100000000000000000000000000000000000000000000000000000000600052603260045260246000fd5b906000526020600020906006020160030154815260200160078481548110611bdc577f4e487b7100000000000000000000000000000000000000000000000000000000600052603260045260246000fd5b90600052602060002090600602016005015481525060086000838152602001908152602001600020600082015181600001556020820151816001019080519060200190611c2a929190612e73565b506040820151816002019080519060200190611c47929190612e73565b50606082015181600301556080820151816004015560a08201518160050155905050611c8c6040518060600160405280602e8152602001614a36602e913982846128d2565b80600e60003373ffffffffffffffffffffffffffffffffffffffff1673ffffffffffffffffffffffffffffffffffffffff16815260200190815260200160002081905550611dcf6040518060600160405280602a81526020016149e4602a913960086000600e60003373ffffffffffffffffffffffffffffffffffffffff1673ffffffffffffffffffffffffffffffffffffffff1681526020019081526020016000205481526020019081526020016000206001018054611d4c90614168565b80601f0160208091040260200160405190810160405280929190818152602001828054611d7890614168565b8015611dc55780601f10611d9a57610100808354040283529160200191611dc5565b820191906000526020600020905b815481529060010190602001808311611da857829003601f168201915b5050505050612971565b611dd96006611eba565b7f4bc303fd457a97b4691b9af582ce71868a3d258638c8d4f8c60988a0f0bfb8cd338284604051611e0c9392919061399a565b60405180910390a15050565b611eb484848484604051602401611e329493929190613a67565b6040516020818303038152906040527f8d142cdd000000000000000000000000000000000000000000000000000000007bffffffffffffffffffffffffffffffffffffffffffffffffffffffff19166020820180517bffffffffffffffffffffffffffffffffffffffffffffffffffffffff8381831617835250505050612a0d565b50505050565b6001816000016000828254019250508190555050565b60007f01ffc9a7000000000000000000000000000000000000000000000000000000007bffffffffffffffffffffffffffffffffffffffffffffffffffffffff1916827bffffffffffffffffffffffffffffffffffffffffffffffffffffffff1916149050919050565b60008073ffffffffffffffffffffffffffffffffffffffff166002600084815260200190815260200160002060009054906101000a900473ffffffffffffffffffffffffffffffffffffffff1673ffffffffffffffffffffffffffffffffffffffff1614159050919050565b600033905090565b816004600083815260200190815260200160002060006101000a81548173ffffffffffffffffffffffffffffffffffffffff021916908373ffffffffffffffffffffffffffffffffffffffff160217905550808273ffffffffffffffffffffffffffffffffffffffff1661202183610918565b73ffffffffffffffffffffffffffffffffffffffff167f8c5be1e5ebec7d5bd14f71427d1e84f3dd0314c0f7b2291e5b200ac8c7c3b92560405160405180910390a45050565b600061207282611f3a565b6120b1576040517f08c379a00000000000000000000000000000000000000000000000000000000081526004016120a890613c83565b60405180910390fd5b60006120bc83610918565b90508073ffffffffffffffffffffffffffffffffffffffff168473ffffffffffffffffffffffffffffffffffffffff16148061212b57508373ffffffffffffffffffffffffffffffffffffffff16612113846106fb565b73ffffffffffffffffffffffffffffffffffffffff16145b8061213c575061213b8185611891565b5b91505092915050565b8273ffffffffffffffffffffffffffffffffffffffff1661216582610918565b73ffffffffffffffffffffffffffffffffffffffff16146121bb576040517f08c379a00000000000000000000000000000000000000000000000000000000081526004016121b290613d63565b60405180910390fd5b600073ffffffffffffffffffffffffffffffffffffffff168273ffffffffffffffffffffffffffffffffffffffff16141561222b576040517f08c379a000000000000000000000000000000000000000000000000000000000815260040161222290613c43565b60405180910390fd5b612236838383612a36565b612241600082611fae565b6001600360008573ffffffffffffffffffffffffffffffffffffffff1673ffffffffffffffffffffffffffffffffffffffff1681526020019081526020016000206000828254612291919061407e565b925050819055506001600360008473ffffffffffffffffffffffffffffffffffffffff1673ffffffffffffffffffffffffffffffffffffffff16815260200190815260200160002060008282546122e89190613f9d565b92505081905550816002600083815260200190815260200160002060006101000a81548173ffffffffffffffffffffffffffffffffffffffff021916908373ffffffffffffffffffffffffffffffffffffffff160217905550808273ffffffffffffffffffffffffffffffffffffffff168473ffffffffffffffffffffffffffffffffffffffff167fddf252ad1be2c89b69c2b068fc378daa952ba7f163c4a11628f55a4df523b3ef60405160405180910390a4505050565b6123ac848484612145565b6123b884848484612a3b565b6123f7576040517f08c379a00000000000000000000000000000000000000000000000000000000081526004016123ee90613be3565b60405180910390fd5b50505050565b60606000821415612445576040518060400160405280600181526020017f300000000000000000000000000000000000000000000000000000000000000081525090506125a5565b600082905060005b60008214612477578080612460906141cb565b915050600a826124709190613ff3565b915061244d565b60008167ffffffffffffffff8111156124b9577f4e487b7100000000000000000000000000000000000000000000000000000000600052604160045260246000fd5b6040519080825280601f01601f1916602001820160405280156124eb5781602001600182028036833780820191505090505b5090505b6000851461259e57600182612504919061407e565b9150600a856125139190614214565b603061251f9190613f9d565b60f81b81838151811061255b577f4e487b7100000000000000000000000000000000000000000000000000000000600052603260045260246000fd5b60200101907effffffffffffffffffffffffffffffffffffffffffffffffffffffffffffff1916908160001a905350600a856125979190613ff3565b94506124ef565b8093505050505b919050565b606060008251905060008114156125d35760405180602001604052806000815250915050612763565b600060036002836125e49190613f9d565b6125ee9190613ff3565b60046125fa9190614024565b9050600060208261260b9190613f9d565b67ffffffffffffffff81111561264a577f4e487b7100000000000000000000000000000000000000000000000000000000600052604160045260246000fd5b6040519080825280601f01601f19166020018201604052801561267c5781602001600182028036833780820191505090505b50905060006040518060600160405280604081526020016149a4604091399050600181016020830160005b868110156127205760038101905062ffffff818a015116603f8160121c168401518060081b905060ff603f83600c1c1686015116810190508060081b905060ff603f8360061c1686015116810190508060081b905060ff603f831686015116810190508060e01b905080845260048401935050506126a7565b50600386066001811461273a576002811461274a57612755565b613d3d60f01b6002830352612755565b603d60f81b60018303525b508484525050819450505050505b919050565b612804848484846040516024016127829493929190613ac1565b6040516020818303038152906040527fd5cf17d0000000000000000000000000000000000000000000000000000000007bffffffffffffffffffffffffffffffffffffffffffffffffffffffff19166020820180517bffffffffffffffffffffffffffffffffffffffffffffffffffffffff8381831617835250505050612a0d565b50505050565b6128a28282604051602401612820929190613b75565b6040516020818303038152906040527f9710a9d0000000000000000000000000000000000000000000000000000000007bffffffffffffffffffffffffffffffffffffffffffffffffffffffff19166020820180517bffffffffffffffffffffffffffffffffffffffffffffffffffffffff8381831617835250505050612a0d565b5050565b600081600001549050919050565b6128ce828260405180602001604052806000815250612bd2565b5050565b61296c8383836040516024016128ea93929190613ba5565b6040516020818303038152906040527f969cdd03000000000000000000000000000000000000000000000000000000007bffffffffffffffffffffffffffffffffffffffffffffffffffffffff19166020820180517bffffffffffffffffffffffffffffffffffffffffffffffffffffffff8381831617835250505050612a0d565b505050565b612a098282604051602401612987929190613a30565b6040516020818303038152906040527f4b5c4277000000000000000000000000000000000000000000000000000000007bffffffffffffffffffffffffffffffffffffffffffffffffffffffff19166020820180517bffffffffffffffffffffffffffffffffffffffffffffffffffffffff8381831617835250505050612a0d565b5050565b60008151905060006a636f6e736f6c652e6c6f679050602083016000808483855afa5050505050565b505050565b6000612a5c8473ffffffffffffffffffffffffffffffffffffffff16612c2d565b15612bc5578373ffffffffffffffffffffffffffffffffffffffff1663150b7a02612a85611fa6565b8786866040518563ffffffff1660e01b8152600401612aa7949392919061394e565b602060405180830381600087803b158015612ac157600080fd5b505af1925050508015612af257506040513d601f19601f82011682018060405250810190612aef91906131b7565b60015b612b75573d8060008114612b22576040519150601f19603f3d011682016040523d82523d6000602084013e612b27565b606091505b50600081511415612b6d576040517f08c379a0000000000000000000000000000000000000000000000000000000008152600401612b6490613be3565b60405180910390fd5b805181602001fd5b63150b7a0260e01b7bffffffffffffffffffffffffffffffffffffffffffffffffffffffff1916817bffffffffffffffffffffffffffffffffffffffffffffffffffffffff191614915050612bca565b600190505b949350505050565b612bdc8383612c40565b612be96000848484612a3b565b612c28576040517f08c379a0000000000000000000000000000000000000000000000000000000008152600401612c1f90613be3565b60405180910390fd5b505050565b600080823b905060008111915050919050565b600073ffffffffffffffffffffffffffffffffffffffff168273ffffffffffffffffffffffffffffffffffffffff161415612cb0576040517f08c379a0000000000000000000000000000000000000000000000000000000008152600401612ca790613d23565b60405180910390fd5b612cb981611f3a565b15612cf9576040517f08c379a0000000000000000000000000000000000000000000000000000000008152600401612cf090613c23565b60405180910390fd5b612d0560008383612a36565b6001600360008473ffffffffffffffffffffffffffffffffffffffff1673ffffffffffffffffffffffffffffffffffffffff1681526020019081526020016000206000828254612d559190613f9d565b92505081905550816002600083815260200190815260200160002060006101000a81548173ffffffffffffffffffffffffffffffffffffffff021916908373ffffffffffffffffffffffffffffffffffffffff160217905550808273ffffffffffffffffffffffffffffffffffffffff16600073ffffffffffffffffffffffffffffffffffffffff167fddf252ad1be2c89b69c2b068fc378daa952ba7f163c4a11628f55a4df523b3ef60405160405180910390a45050565b6040518060a0016040528060608152602001606081526020016000815260200160008152602001600081525090565b6040518060c001604052806000815260200160608152602001606081526020016000815260200160008152602001600081525090565b828054612e7f90614168565b90600052602060002090601f016020900481019282612ea15760008555612ee8565b82601f10612eba57805160ff1916838001178555612ee8565b82800160010185558215612ee8579182015b82811115612ee7578251825591602001919060010190612ecc565b5b509050612ef59190612ef9565b5090565b5b80821115612f12576000816000905550600101612efa565b5090565b6000612f29612f2484613edf565b613eba565b905082815260208101848484011115612f4157600080fd5b612f4c848285614126565b509392505050565b600081359050612f6381614947565b92915050565b600081359050612f788161495e565b92915050565b600081359050612f8d81614975565b92915050565b600081519050612fa281614975565b92915050565b600082601f830112612fb957600080fd5b8135612fc9848260208601612f16565b91505092915050565b600081359050612fe18161498c565b92915050565b600060208284031215612ff957600080fd5b600061300784828501612f54565b91505092915050565b6000806040838503121561302357600080fd5b600061303185828601612f54565b925050602061304285828601612f54565b9150509250929050565b60008060006060848603121561306157600080fd5b600061306f86828701612f54565b935050602061308086828701612f54565b925050604061309186828701612fd2565b9150509250925092565b600080600080608085870312156130b157600080fd5b60006130bf87828801612f54565b94505060206130d087828801612f54565b93505060406130e187828801612fd2565b925050606085013567ffffffffffffffff8111156130fe57600080fd5b61310a87828801612fa8565b91505092959194509250565b6000806040838503121561312957600080fd5b600061313785828601612f54565b925050602061314885828601612f69565b9150509250929050565b6000806040838503121561316557600080fd5b600061317385828601612f54565b925050602061318485828601612fd2565b9150509250929050565b6000602082840312156131a057600080fd5b60006131ae84828501612f7e565b91505092915050565b6000602082840312156131c957600080fd5b60006131d784828501612f93565b91505092915050565b6000602082840312156131f257600080fd5b600061320084828501612fd2565b91505092915050565b6000613215838361372e565b905092915050565b613226816140b2565b82525050565b600061323782613f20565b6132418185613f4e565b93508360208202850161325385613f10565b8060005b8581101561328f57848403895281516132708582613209565b945061327b83613f41565b925060208a01995050600181019050613257565b50829750879550505050505092915050565b6132aa816140c4565b82525050565b60006132bb82613f2b565b6132c58185613f5f565b93506132d5818560208601614135565b6132de81614301565b840191505092915050565b60006132f482613f36565b6132fe8185613f70565b935061330e818560208601614135565b61331781614301565b840191505092915050565b600061332d82613f36565b6133378185613f81565b9350613347818560208601614135565b61335081614301565b840191505092915050565b600061336682613f36565b6133708185613f92565b9350613380818560208601614135565b80840191505092915050565b6000613399600b83613f92565b91506133a482614312565b600b82019050919050565b60006133bc603283613f81565b91506133c78261433b565b604082019050919050565b60006133df602883613f81565b91506133ea8261438a565b604082019050919050565b6000613402601c83613f81565b915061340d826143d9565b602082019050919050565b6000613425600e83613f92565b915061343082614402565b600e82019050919050565b6000613448602483613f81565b91506134538261442b565b604082019050919050565b600061346b601983613f81565b91506134768261447a565b602082019050919050565b600061348e602c83613f81565b9150613499826144a3565b604082019050919050565b60006134b1603883613f81565b91506134bc826144f2565b604082019050919050565b60006134d4606383613f92565b91506134df82614541565b606382019050919050565b60006134f7602a83613f81565b9150613502826145dc565b604082019050919050565b600061351a602983613f81565b91506135258261462b565b604082019050919050565b600061353d602d83613f81565b91506135488261467a565b604082019050919050565b6000613560600483613f92565b915061356b826146c9565b600482019050919050565b6000613583602083613f81565b915061358e826146f2565b602082019050919050565b60006135a6602c83613f81565b91506135b18261471b565b604082019050919050565b60006135c9602983613f81565b91506135d48261476a565b604082019050919050565b60006135ec600a83613f92565b91506135f7826147b9565b600a82019050919050565b600061360f602183613f81565b915061361a826147e2565b604082019050919050565b6000613632601d83613f92565b915061363d82614831565b601d82019050919050565b6000613655603183613f81565b91506136608261485a565b604082019050919050565b6000613678603d83613f92565b9150613683826148a9565b603d82019050919050565b600061369b602d83613f92565b91506136a6826148f8565b602d82019050919050565b600060a08301600083015184820360008601526136ce82826132e9565b915050602083015184820360208601526136e882826132e9565b91505060408301516136fd604086018261384e565b506060830151613710606086018261384e565b506080830151613723608086018261384e565b508091505092915050565b600060c083016000830151613746600086018261384e565b506020830151848203602086015261375e82826132e9565b9150506040830151848203604086015261377882826132e9565b915050606083015161378d606086018261384e565b5060808301516137a0608086018261384e565b5060a08301516137b360a086018261384e565b508091505092915050565b600060c0830160008301516137d6600086018261384e565b50602083015184820360208601526137ee82826132e9565b9150506040830151848203604086015261380882826132e9565b915050606083015161381d606086018261384e565b506080830151613830608086018261384e565b5060a083015161384360a086018261384e565b508091505092915050565b6138578161411c565b82525050565b6138668161411c565b82525050565b6000613877826135df565b9150613883828961335b565b915061388e8261338c565b915061389a828861335b565b91506138a5826134c7565b91506138b1828761335b565b91506138bc8261366b565b91506138c8828661335b565b91506138d382613418565b91506138df828561335b565b91506138ea8261368e565b91506138f6828461335b565b915061390182613553565b9150819050979650505050505050565b600061391c82613625565b9150613928828461335b565b915081905092915050565b6000602082019050613948600083018461321d565b92915050565b6000608082019050613963600083018761321d565b613970602083018661321d565b61397d604083018561385d565b818103606083015261398f81846132b0565b905095945050505050565b60006060820190506139af600083018661321d565b6139bc602083018561385d565b6139c9604083018461385d565b949350505050565b600060208201905081810360008301526139eb818461322c565b905092915050565b6000602082019050613a0860008301846132a1565b92915050565b60006020820190508181036000830152613a288184613322565b905092915050565b60006040820190508181036000830152613a4a8185613322565b90508181036020830152613a5e8184613322565b90509392505050565b60006080820190508181036000830152613a818187613322565b90508181036020830152613a958186613322565b9050613aa4604083018561385d565b8181036060830152613ab68184613322565b905095945050505050565b60006080820190508181036000830152613adb8187613322565b90508181036020830152613aef8186613322565b9050613afe604083018561385d565b613b0b606083018461385d565b95945050505050565b600060a0820190508181036000830152613b2e8188613322565b90508181036020830152613b428187613322565b9050613b51604083018661385d565b613b5e606083018561385d565b613b6b608083018461385d565b9695505050505050565b60006040820190508181036000830152613b8f8185613322565b9050613b9e602083018461385d565b9392505050565b60006060820190508181036000830152613bbf8186613322565b9050613bce602083018561385d565b613bdb604083018461385d565b949350505050565b60006020820190508181036000830152613bfc816133af565b9050919050565b60006020820190508181036000830152613c1c816133d2565b9050919050565b60006020820190508181036000830152613c3c816133f5565b9050919050565b60006020820190508181036000830152613c5c8161343b565b9050919050565b60006020820190508181036000830152613c7c8161345e565b9050919050565b60006020820190508181036000830152613c9c81613481565b9050919050565b60006020820190508181036000830152613cbc816134a4565b9050919050565b60006020820190508181036000830152613cdc816134ea565b9050919050565b60006020820190508181036000830152613cfc8161350d565b9050919050565b60006020820190508181036000830152613d1c81613530565b9050919050565b60006020820190508181036000830152613d3c81613576565b9050919050565b60006020820190508181036000830152613d5c81613599565b9050919050565b60006020820190508181036000830152613d7c816135bc565b9050919050565b60006020820190508181036000830152613d9c81613602565b9050919050565b60006020820190508181036000830152613dbc81613648565b9050919050565b60006020820190508181036000830152613ddd81846136b1565b905092915050565b60006020820190508181036000830152613dff81846137be565b905092915050565b6000602082019050613e1c600083018461385d565b92915050565b600060c082019050613e37600083018961385d565b8181036020830152613e498188613322565b90508181036040830152613e5d8187613322565b9050613e6c606083018661385d565b613e79608083018561385d565b613e8660a083018461385d565b979650505050505050565b6000604082019050613ea6600083018561385d565b613eb3602083018461385d565b9392505050565b6000613ec4613ed5565b9050613ed0828261419a565b919050565b6000604051905090565b600067ffffffffffffffff821115613efa57613ef96142d2565b5b613f0382614301565b9050602081019050919050565b6000819050602082019050919050565b600081519050919050565b600081519050919050565b600081519050919050565b6000602082019050919050565b600082825260208201905092915050565b600082825260208201905092915050565b600082825260208201905092915050565b600082825260208201905092915050565b600081905092915050565b6000613fa88261411c565b9150613fb38361411c565b9250827fffffffffffffffffffffffffffffffffffffffffffffffffffffffffffffffff03821115613fe857613fe7614245565b5b828201905092915050565b6000613ffe8261411c565b91506140098361411c565b92508261401957614018614274565b5b828204905092915050565b600061402f8261411c565b915061403a8361411c565b9250817fffffffffffffffffffffffffffffffffffffffffffffffffffffffffffffffff048311821515161561407357614072614245565b5b828202905092915050565b60006140898261411c565b91506140948361411c565b9250828210156140a7576140a6614245565b5b828203905092915050565b60006140bd826140fc565b9050919050565b60008115159050919050565b60007fffffffff0000000000000000000000000000000000000000000000000000000082169050919050565b600073ffffffffffffffffffffffffffffffffffffffff82169050919050565b6000819050919050565b82818337600083830152505050565b60005b83811015614153578082015181840152602081019050614138565b83811115614162576000848401525b50505050565b6000600282049050600182168061418057607f821691505b60208210811415614194576141936142a3565b5b50919050565b6141a382614301565b810181811067ffffffffffffffff821117156141c2576141c16142d2565b5b80604052505050565b60006141d68261411c565b91507fffffffffffffffffffffffffffffffffffffffffffffffffffffffffffffffff82141561420957614208614245565b5b600182019050919050565b600061421f8261411c565b915061422a8361411c565b92508261423a57614239614274565b5b828206905092915050565b7f4e487b7100000000000000000000000000000000000000000000000000000000600052601160045260246000fd5b7f4e487b7100000000000000000000000000000000000000000000000000000000600052601260045260246000fd5b7f4e487b7100000000000000000000000000000000000000000000000000000000600052602260045260246000fd5b7f4e487b7100000000000000000000000000000000000000000000000000000000600052604160045260246000fd5b6000601f19601f8301169050919050565b7f202d2d204e465420233a20000000000000000000000000000000000000000000600082015250565b7f4552433732313a207472616e7366657220746f206e6f6e20455243373231526560008201527f63656976657220696d706c656d656e7465720000000000000000000000000000602082015250565b7f4572726f723a20626f7373206d757374206861766520485020746f206174746160008201527f636b20626f73732e000000000000000000000000000000000000000000000000602082015250565b7f4552433732313a20746f6b656e20616c7265616479206d696e74656400000000600082015250565b7f2c20226d61785f76616c7565223a000000000000000000000000000000000000600082015250565b7f4552433732313a207472616e7366657220746f20746865207a65726f2061646460008201527f7265737300000000000000000000000000000000000000000000000000000000602082015250565b7f4552433732313a20617070726f766520746f2063616c6c657200000000000000600082015250565b7f4552433732313a206f70657261746f7220717565727920666f72206e6f6e657860008201527f697374656e7420746f6b656e0000000000000000000000000000000000000000602082015250565b7f4552433732313a20617070726f76652063616c6c6572206973206e6f74206f7760008201527f6e6572206e6f7220617070726f76656420666f7220616c6c0000000000000000602082015250565b7f222c20226465736372697074696f6e223a20225468697320697320616e204e4660008201527f542074686174206c6574732070656f706c6520706c617920696e20746865206760208201527f616d6520417a74656320476f647320426174746c6521222c2022696d6167652260408201527f3a20220000000000000000000000000000000000000000000000000000000000606082015250565b7f4552433732313a2062616c616e636520717565727920666f7220746865207a6560008201527f726f206164647265737300000000000000000000000000000000000000000000602082015250565b7f4552433732313a206f776e657220717565727920666f72206e6f6e657869737460008201527f656e7420746f6b656e0000000000000000000000000000000000000000000000602082015250565b7f4572726f723a20636861726163746572206d757374206861766520485020746f60008201527f2061747461636b20626f73732e00000000000000000000000000000000000000602082015250565b7f7d205d7d00000000000000000000000000000000000000000000000000000000600082015250565b7f4552433732313a206d696e7420746f20746865207a65726f2061646472657373600082015250565b7f4552433732313a20617070726f76656420717565727920666f72206e6f6e657860008201527f697374656e7420746f6b656e0000000000000000000000000000000000000000602082015250565b7f4552433732313a207472616e73666572206f6620746f6b656e2074686174206960008201527f73206e6f74206f776e0000000000000000000000000000000000000000000000602082015250565b7f7b226e616d65223a202200000000000000000000000000000000000000000000600082015250565b7f4552433732313a20617070726f76616c20746f2063757272656e74206f776e6560008201527f7200000000000000000000000000000000000000000000000000000000000000602082015250565b7f646174613a6170706c69636174696f6e2f6a736f6e3b6261736536342c000000600082015250565b7f4552433732313a207472616e736665722063616c6c6572206973206e6f74206f60008201527f776e6572206e6f7220617070726f766564000000000000000000000000000000602082015250565b7f222c202261747472696275746573223a205b207b202274726169745f7479706560008201527f223a20224865616c746820506f696e7473222c202276616c7565223a20000000602082015250565b7f7d2c207b202274726169745f74797065223a202241747461636b2044616d616760008201527f65222c202276616c7565223a2000000000000000000000000000000000000000602082015250565b614950816140b2565b811461495b57600080fd5b50565b614967816140c4565b811461497257600080fd5b50565b61497e816140d0565b811461498957600080fd5b50565b6149958161411c565b81146149a057600080fd5b5056fe4142434445464748494a4b4c4d4e4f505152535455565758595a6162636465666768696a6b6c6d6e6f707172737475767778797a303132333435363738392b2f596f752068617665206d696e74656420257320417a74656320476f642c20676f6f642063686f69636521426f73732061747461636b656420706c617965722e204e657720706c617965722068703a2025730a4d696e746564204e465420772f20746f6b656e496420257320616e6420636861726163746572496e6465782025730a506c6179657220772f206368617261637465722025732061626f757420746f2061747461636b2e2048617320257320485020616e64202573204144a2646970667358221220bc726248b8d94ebdd21ba0bb6696f86b3ce8f4552bb4026fd27f9892fe8c36d164736f6c63430008040033446f6e6520696e697469616c697a696e6720257320772f2048502025732c20696d67202573",
  "linkReferences": {},
  "deployedLinkReferences": {}
}